:1000000012015A12015A743812013812015A743806
:1000100012013812015A743812013875A0FF7400A9
:10002000E5A0B4F0287438120138740F1201387446
:100030000112013874801201387446120149745556
:10004000120149744C120149744C120149E5A0B4E3
:10005000F84B7438120138740F1201387401120110
:1000600038748012013874541201497448120149DD
:1000700074521201497445120149744512014974C0
:1000800046120149744F12014974551201497452C4
:1000900012014974541201497448120149E5A0B48F
:1000A000FC287438120138740F12013874011201DF
:1000B00038748012013874481201497441120149A0
:1000C000744C1201497446120149E5A0B4FE37741C
:1000D00038120138740F120138740112013874801B
:1000E00012013874511201497455120149744112B8
:1000F00001497452120149745412014974451201A4
:10010000497452120149E5A0B4FF2A74381201382B
:10011000740F12013874011201387480120138749E
:1001200045120149744D1201497450120149745429
:100130001201497459020020F590C280C281D28216
:1001400012015AC28212015A22F590D280C281D283
:100150008212015AC28212015A227E307EFFDDFED7
:03016000DEFA22A2
:00000001FF
